{
  "abi": [
    {
      "inputs": [
        {
          "internalType": "address",
          "name": "_veloLpZapperRegistry",
          "type": "address"
        }
      ],
      "stateMutability": "nonpayable",
      "type": "constructor"
    },
    {
      "anonymous": false,
      "inputs": [
        {
          "indexed": true,
          "internalType": "address",
          "name": "previousOwner",
          "type": "address"
        },
        {
          "indexed": true,
          "internalType": "address",
          "name": "newOwner",
          "type": "address"
        }
      ],
      "name": "OwnershipTransferred",
      "type": "event"
    },
    {
      "anonymous": false,
      "inputs": [
        {
          "indexed": false,
          "internalType": "address",
          "name": "token",
          "type": "address"
        },
        {
          "indexed": false,
          "internalType": "uint256",
          "name": "amount",
          "type": "uint256"
        }
      ],
      "name": "Recovered",
      "type": "event"
    },
    {
      "anonymous": false,
      "inputs": [
        {
          "indexed": false,
          "internalType": "address",
          "name": "registry",
          "type": "address"
        }
      ],
      "name": "UpdatedRegistry",
      "type": "event"
    },
    {
      "anonymous": false,
      "inputs": [
        {
          "indexed": true,
          "internalType": "address",
          "name": "user",
          "type": "address"
        },
        {
          "indexed": true,
          "internalType": "address",
          "name": "targetVault",
          "type": "address"
        },
        {
          "indexed": false,
          "internalType": "uint256",
          "name": "amount",
          "type": "uint256"
        }
      ],
      "name": "ZapIn",
      "type": "event"
    },
    {
      "inputs": [],
      "name": "owner",
      "outputs": [
        {
          "internalType": "address",
          "name": "",
          "type": "address"
        }
      ],
      "stateMutability": "view",
      "type": "function"
    },
    {
      "inputs": [
        {
          "internalType": "address",
          "name": "tokenAddress",
          "type": "address"
        },
        {
          "internalType": "uint256",
          "name": "tokenAmount",
          "type": "uint256"
        }
      ],
      "name": "recoverERC20",
      "outputs": [],
      "stateMutability": "nonpayable",
      "type": "function"
    },
    {
      "inputs": [],
      "name": "renounceOwnership",
      "outputs": [],
      "stateMutability": "nonpayable",
      "type": "function"
    },
    {
      "inputs": [
        {
          "internalType": "address",
          "name": "_registry",
          "type": "address"
        }
      ],
      "name": "setRegistry",
      "outputs": [],
      "stateMutability": "nonpayable",
      "type": "function"
    },
    {
      "inputs": [
        {
          "internalType": "address",
          "name": "newOwner",
          "type": "address"
        }
      ],
      "name": "transferOwnership",
      "outputs": [],
      "stateMutability": "nonpayable",
      "type": "function"
    },
    {
      "inputs": [],
      "name": "veloLpZapperRegistry",
      "outputs": [
        {
          "internalType": "address",
          "name": "",
          "type": "address"
        }
      ],
      "stateMutability": "view",
      "type": "function"
    },
    {
      "inputs": [
        {
          "internalType": "address",
          "name": "_lpToken",
          "type": "address"
        }
      ],
      "name": "zap",
      "outputs": [],
      "stateMutability": "nonpayable",
      "type": "function"
    }
  ],
  "bytecode": {
    "object": "0x608060405234801561001057600080fd5b50604051610e96380380610e9683398101604081905261002f916100ad565b6100383361005d565b600180546001600160a01b0319166001600160a01b03929092169190911790556100dd565b600080546001600160a01b038381166001600160a01b0319831681178455604051919092169283917f8be0079c531659141344cd1fd0a4f28419497f9722a3daafe3b4186f6b6457e09190a35050565b6000602082840312156100bf57600080fd5b81516001600160a01b03811681146100d657600080fd5b9392505050565b610daa806100ec6000396000f3fe608060405234801561001057600080fd5b506004361061007d5760003560e01c80638da5cb5b1161005b5780638da5cb5b146100b2578063a91ee0dc146100db578063f2fde38b146100ee578063f9dac2e61461010157600080fd5b8063510a338314610082578063715018a6146100975780638980f11f1461009f575b600080fd5b610095610090366004610bd8565b610114565b005b610095610541565b6100956100ad366004610bf5565b610555565b6000546001600160a01b03165b6040516001600160a01b03909116815260200160405180910390f35b6100956100e9366004610bd8565b6105c9565b6100956100fc366004610bd8565b610625565b6001546100bf906001600160a01b031681565b600154604051637f19d98160e11b81526001600160a01b038381166004830152909116906000908190839063fe33b302906024016040805180830381865afa158015610164573d6000803e3d6000fd5b505050506040513d601f19601f820116820180604052508101906101889190610c31565b51604051637f19d98160e11b81526001600160a01b03868116600483015285169063fe33b302906024016040805180830381865afa1580156101ce573d6000803e3d6000fd5b505050506040513d601f19601f820116820180604052508101906101f29190610c31565b602001516040516370a0823160e01b815233600482015291935091508290829061027490839081906001600160a01b038216906370a0823190602401602060405180830381865afa15801561024b573d6000803e3d6000fd5b505050506040513d601f19601f8201168201806040525081019061026f9190610cc6565b6106a3565b6040516370a0823160e01b815233600482018190526001600160a01b038416916323b872dd9190309084906370a0823190602401602060405180830381865afa1580156102c5573d6000803e3d6000fd5b505050506040513d601f19601f820116820180604052508101906102e99190610cc6565b6040516001600160e01b031960e086901b1681526001600160a01b03938416600482015292909116602483015260448201526064016020604051808303816000875af115801561033d573d6000803e3d6000fd5b505050506040513d601f19601f820116820180604052508101906103619190610cdf565b50836001600160a01b031663853828b66040518163ffffffff1660e01b8152600401600060405180830381600087803b15801561039d57600080fd5b505af11580156103b1573d6000803e3d6000fd5b50505050826001600160a01b031663d0e30db06040518163ffffffff1660e01b8152600401600060405180830381600087803b1580156103f057600080fd5b505af1158015610404573d6000803e3d6000fd5b50506040516370a0823160e01b8152336004820152600092506001600160a01b03841691506370a0823190602401602060405180830381865afa15801561044f573d6000803e3d6000fd5b505050506040513d601f19601f820116820180604052508101906104739190610cc6565b90506104808483836106a3565b6040516323b872dd60e01b8152306004820152336024820152604481018290526001600160a01b038316906323b872dd906064016020604051808303816000875af11580156104d3573d6000803e3d6000fd5b505050506040513d601f19601f820116820180604052508101906104f79190610cdf565b506040518181526001600160a01b0385169033907f4fd86e42fdf9189d86bda34d3e693c24264ea2b54ff7796d9e1d40f5e29f4f599060200160405180910390a350505050505050565b61054961074c565b61055360006107a6565b565b61055d61074c565b6105836105726000546001600160a01b031690565b6001600160a01b03841690836107f6565b604080516001600160a01b0384168152602081018390527f8c1256b8896378cd5044f80c202f9772b9d77dc85c8a6eb51967210b09bfaa28910160405180910390a15050565b6105d161074c565b600180546001600160a01b0319166001600160a01b0383169081179091556040519081527ffb043e6f650a4dd588d613d632c256bc79310f77821cf3dbd16ebf404e5d77f89060200160405180910390a150565b61062d61074c565b6001600160a01b0381166106975760405162461bcd60e51b815260206004820152602660248201527f4f776e61626c653a206e6577206f776e657220697320746865207a65726f206160448201526564647265737360d01b60648201526084015b60405180910390fd5b6106a0816107a6565b50565b604051636eb1769f60e11b81523060048201526001600160a01b03848116602483015282919084169063dd62ed3e90604401602060405180830381865afa1580156106f2573d6000803e3d6000fd5b505050506040513d601f19601f820116820180604052508101906107169190610cc6565b1015610747576107316001600160a01b038316846000610859565b6107476001600160a01b03831684600019610859565b505050565b6000546001600160a01b031633146105535760405162461bcd60e51b815260206004820181905260248201527f4f776e61626c653a2063616c6c6572206973206e6f7420746865206f776e6572604482015260640161068e565b600080546001600160a01b038381166001600160a01b0319831681178455604051919092169283917f8be0079c531659141344cd1fd0a4f28419497f9722a3daafe3b4186f6b6457e09190a35050565b6040516001600160a01b03831660248201526044810182905261074790849063a9059cbb60e01b906064015b60408051601f198184030181529190526020810180516001600160e01b03166001600160e01b03199093169290921790915261096e565b8015806108d35750604051636eb1769f60e11b81523060048201526001600160a01b03838116602483015284169063dd62ed3e90604401602060405180830381865afa1580156108ad573d6000803e3d6000fd5b505050506040513d601f19601f820116820180604052508101906108d19190610cc6565b155b61093e5760405162461bcd60e51b815260206004820152603660248201527f5361666545524332303a20617070726f76652066726f6d206e6f6e2d7a65726f60448201527520746f206e6f6e2d7a65726f20616c6c6f77616e636560501b606482015260840161068e565b6040516001600160a01b03831660248201526044810182905261074790849063095ea7b360e01b90606401610822565b60006109c3826040518060400160405280602081526020017f5361666545524332303a206c6f772d6c6576656c2063616c6c206661696c6564815250856001600160a01b0316610a409092919063ffffffff16565b80519091501561074757808060200190518101906109e19190610cdf565b6107475760405162461bcd60e51b815260206004820152602a60248201527f5361666545524332303a204552433230206f7065726174696f6e20646964206e6044820152691bdd081cdd58d8d9595960b21b606482015260840161068e565b6060610a4f8484600085610a59565b90505b9392505050565b606082471015610aba5760405162461bcd60e51b815260206004820152602660248201527f416464726573733a20696e73756666696369656e742062616c616e636520666f6044820152651c8818d85b1b60d21b606482015260840161068e565b6001600160a01b0385163b610b115760405162461bcd60e51b815260206004820152601d60248201527f416464726573733a2063616c6c20746f206e6f6e2d636f6e7472616374000000604482015260640161068e565b600080866001600160a01b03168587604051610b2d9190610d25565b60006040518083038185875af1925050503d8060008114610b6a576040519150601f19603f3d011682016040523d82523d6000602084013e610b6f565b606091505b5091509150610b7f828286610b8a565b979650505050505050565b60608315610b99575081610a52565b825115610ba95782518084602001fd5b8160405162461bcd60e51b815260040161068e9190610d41565b6001600160a01b03811681146106a057600080fd5b600060208284031215610bea57600080fd5b8135610a5281610bc3565b60008060408385031215610c0857600080fd5b8235610c1381610bc3565b946020939093013593505050565b8051610c2c81610bc3565b919050565b600060408284031215610c4357600080fd5b82601f830112610c5257600080fd5b6040516040810181811067ffffffffffffffff82111715610c8357634e487b7160e01b600052604160045260246000fd5b8060405250806040840185811115610c9a57600080fd5b845b81811015610cbb57610cad81610c21565b835260209283019201610c9c565b509195945050505050565b600060208284031215610cd857600080fd5b5051919050565b600060208284031215610cf157600080fd5b81518015158114610a5257600080fd5b60005b83811015610d1c578181015183820152602001610d04565b50506000910152565b60008251610d37818460208701610d01565b9190910192915050565b6020815260008251806020840152610d60816040850160208701610d01565b601f01601f1916919091016040019291505056fea2646970667358221220bf37e9a5073f03af032a808be7a59bbff03ebd11a79fbdcd97b368614d04aea564736f6c63430008150033",
    "linkReferences": {}
  },
  "methodIdentifiers": {
    "owner()": "8da5cb5b",
    "recoverERC20(address,uint256)": "8980f11f",
    "renounceOwnership()": "715018a6",
    "setRegistry(address)": "a91ee0dc",
    "transferOwnership(address)": "f2fde38b",
    "veloLpZapperRegistry()": "f9dac2e6",
    "zap(address)": "510a3383"
  },
  "id": 27
}