{
  "abi": [
    {
      "anonymous": false,
      "inputs": [
        {
          "indexed": true,
          "internalType": "address",
          "name": "previousOwner",
          "type": "address"
        },
        {
          "indexed": true,
          "internalType": "address",
          "name": "newOwner",
          "type": "address"
        }
      ],
      "name": "OwnershipTransferred",
      "type": "event"
    },
    {
      "anonymous": false,
      "inputs": [
        {
          "indexed": true,
          "internalType": "address",
          "name": "lpToken",
          "type": "address"
        },
        {
          "indexed": false,
          "internalType": "address",
          "name": "beefyVault",
          "type": "address"
        },
        {
          "indexed": false,
          "internalType": "address",
          "name": "yearnVault",
          "type": "address"
        }
      ],
      "name": "PairAdded",
      "type": "event"
    },
    {
      "anonymous": false,
      "inputs": [
        {
          "indexed": false,
          "internalType": "address",
          "name": "token",
          "type": "address"
        },
        {
          "indexed": false,
          "internalType": "uint256",
          "name": "amount",
          "type": "uint256"
        }
      ],
      "name": "Recovered",
      "type": "event"
    },
    {
      "anonymous": false,
      "inputs": [
        {
          "indexed": true,
          "internalType": "address",
          "name": "user",
          "type": "address"
        },
        {
          "indexed": true,
          "internalType": "address",
          "name": "targetVault",
          "type": "address"
        },
        {
          "indexed": false,
          "internalType": "uint256",
          "name": "amount",
          "type": "uint256"
        }
      ],
      "name": "ZapIn",
      "type": "event"
    },
    {
      "inputs": [
        {
          "internalType": "address",
          "name": "_lpToken",
          "type": "address"
        },
        {
          "internalType": "address",
          "name": "_beefyVault",
          "type": "address"
        },
        {
          "internalType": "address",
          "name": "_yearnVault",
          "type": "address"
        }
      ],
      "name": "addPair",
      "outputs": [],
      "stateMutability": "nonpayable",
      "type": "function"
    },
    {
      "inputs": [],
      "name": "getNumLpTokens",
      "outputs": [
        {
          "internalType": "uint256",
          "name": "",
          "type": "uint256"
        }
      ],
      "stateMutability": "view",
      "type": "function"
    },
    {
      "inputs": [
        {
          "internalType": "address",
          "name": "",
          "type": "address"
        }
      ],
      "name": "isLpTokenRegistered",
      "outputs": [
        {
          "internalType": "bool",
          "name": "",
          "type": "bool"
        }
      ],
      "stateMutability": "view",
      "type": "function"
    },
    {
      "inputs": [
        {
          "internalType": "uint256",
          "name": "",
          "type": "uint256"
        }
      ],
      "name": "lpTokens",
      "outputs": [
        {
          "internalType": "address",
          "name": "",
          "type": "address"
        }
      ],
      "stateMutability": "view",
      "type": "function"
    },
    {
      "inputs": [],
      "name": "owner",
      "outputs": [
        {
          "internalType": "address",
          "name": "",
          "type": "address"
        }
      ],
      "stateMutability": "view",
      "type": "function"
    },
    {
      "inputs": [
        {
          "internalType": "address",
          "name": "",
          "type": "address"
        }
      ],
      "name": "pairEndorsers",
      "outputs": [
        {
          "internalType": "bool",
          "name": "",
          "type": "bool"
        }
      ],
      "stateMutability": "view",
      "type": "function"
    },
    {
      "inputs": [
        {
          "internalType": "address",
          "name": "",
          "type": "address"
        },
        {
          "internalType": "uint256",
          "name": "",
          "type": "uint256"
        }
      ],
      "name": "pairs",
      "outputs": [
        {
          "internalType": "address",
          "name": "",
          "type": "address"
        }
      ],
      "stateMutability": "view",
      "type": "function"
    },
    {
      "inputs": [],
      "name": "renounceOwnership",
      "outputs": [],
      "stateMutability": "nonpayable",
      "type": "function"
    },
    {
      "inputs": [
        {
          "internalType": "address",
          "name": "endorser",
          "type": "address"
        },
        {
          "internalType": "bool",
          "name": "allowed",
          "type": "bool"
        }
      ],
      "name": "setPairEndorser",
      "outputs": [],
      "stateMutability": "nonpayable",
      "type": "function"
    },
    {
      "inputs": [
        {
          "internalType": "address",
          "name": "newOwner",
          "type": "address"
        }
      ],
      "name": "transferOwnership",
      "outputs": [],
      "stateMutability": "nonpayable",
      "type": "function"
    },
    {
      "inputs": [
        {
          "internalType": "address",
          "name": "_lpToken",
          "type": "address"
        }
      ],
      "name": "zap",
      "outputs": [],
      "stateMutability": "nonpayable",
      "type": "function"
    }
  ],
  "bytecode": {
    "object": "0x608060405234801561001057600080fd5b5061001a3361001f565b61006f565b600080546001600160a01b038381166001600160a01b0319831681178455604051919092169283917f8be0079c531659141344cd1fd0a4f28419497f9722a3daafe3b4186f6b6457e09190a35050565b610feb8061007e6000396000f3fe608060405234801561001057600080fd5b50600436106100a95760003560e01c80638da5cb5b116100715780638da5cb5b14610141578063ad3d587014610152578063c9e4f07a14610165578063dc8dddf314610176578063f1ec23cf14610199578063f2fde38b146101ac57600080fd5b806303d40513146100ae5780631bb5e2dc146100de57806343470f2a146100f1578063510a338314610124578063715018a614610139575b600080fd5b6100c16100bc366004610de5565b6101bf565b6040516001600160a01b0390911681526020015b60405180910390f35b6100c16100ec366004610e11565b6101ed565b6101146100ff366004610e2a565b60046020526000908152604090205460ff1681565b60405190151581526020016100d5565b610137610132366004610e2a565b610217565b005b610137610583565b6000546001600160a01b03166100c1565b610137610160366004610e55565b610597565b6001546040519081526020016100d5565b610114610184366004610e2a565b60036020526000908152604090205460ff1681565b6101376101a7366004610e8e565b6105ca565b6101376101ba366004610e2a565b610837565b600260205281600052604060002081600281106101db57600080fd5b01546001600160a01b03169150829050565b600181815481106101fd57600080fd5b6000918252602090912001546001600160a01b0316905081565b6001600160a01b038116600090815260026020819052604080832081518083019283905292909182845b81546001600160a01b03168152600190910190602001808311610241575050505050905060008160006002811061027a5761027a610ed9565b60200201519050600082600160200201516040516370a0823160e01b81523360048201529091506000906001600160a01b038416906370a0823190602401602060405180830381865afa1580156102d5573d6000803e3d6000fd5b505050506040513d601f19601f820116820180604052508101906102f99190610eef565b84519091506103099084836108b0565b6040516323b872dd60e01b8152336004820152306024820152604481018290526001600160a01b038416906323b872dd906064016020604051808303816000875af115801561035c573d6000803e3d6000fd5b505050506040513d601f19601f820116820180604052508101906103809190610f08565b5083600060200201516001600160a01b031663853828b66040518163ffffffff1660e01b8152600401600060405180830381600087803b1580156103c357600080fd5b505af11580156103d7573d6000803e3d6000fd5b50506040516370a0823160e01b8152306004820152600092506001600160a01b03881691506370a0823190602401602060405180830381865afa158015610422573d6000803e3d6000fd5b505050506040513d601f19601f820116820180604052508101906104469190610eef565b905061045a856001602002015187836108b0565b84600160200201516001600160a01b031663d0e30db06040518163ffffffff1660e01b8152600401600060405180830381600087803b15801561049c57600080fd5b505af11580156104b0573d6000803e3d6000fd5b50506040516370a0823160e01b8152306004820152600092506001600160a01b03861691506370a0823190602401602060405180830381865afa1580156104fb573d6000803e3d6000fd5b505050506040513d601f19601f8201168201806040525081019061051f9190610eef565b90506105356001600160a01b0385163383610959565b6020808701516040518381526001600160a01b039091169133917f4fd86e42fdf9189d86bda34d3e693c24264ea2b54ff7796d9e1d40f5e29f4f59910160405180910390a350505050505050565b61058b6109bc565b6105956000610a16565b565b61059f6109bc565b6001600160a01b03919091166000908152600360205260409020805460ff1916911515919091179055565b3360009081526003602052604090205460ff1661061d5760405162461bcd60e51b815260206004820152600c60248201526b155b985d5d1a1bdc9a5e995960a21b60448201526064015b60405180910390fd5b806001600160a01b031663fc0c546a6040518163ffffffff1660e01b8152600401602060405180830381865afa15801561065b573d6000803e3d6000fd5b505050506040513d601f19601f8201168201806040525081019061067f9190610f25565b6001600160a01b0316826001600160a01b0316631f1fcd516040518163ffffffff1660e01b8152600401602060405180830381865afa1580156106c6573d6000803e3d6000fd5b505050506040513d601f19601f820116820180604052508101906106ea9190610f25565b6001600160a01b0316146107395760405162461bcd60e51b81526020600482015260166024820152750d8e040e8ded6cadc40c8decae6dc4ee840dac2e8c6d60531b6044820152606401610614565b6001600160a01b03838116600090815260026020908152604080832080546001600160a01b0319908116888716178255600190910180549091169486169490941790935560049052205460ff166107eb576001805480820182557fb10e2d527612073b26eecdfd717e6a320cf44b4afac2b0732d9fcbe2b7fa0cf60180546001600160a01b0319166001600160a01b0386169081179091556000908152600460205260409020805460ff191690911790555b604080516001600160a01b03848116825283811660208301528516917f7f46075c67ca5bbd3aaf82d8e324282141f27b7cba3376e5498a6b70c9931c2a910160405180910390a2505050565b61083f6109bc565b6001600160a01b0381166108a45760405162461bcd60e51b815260206004820152602660248201527f4f776e61626c653a206e6577206f776e657220697320746865207a65726f206160448201526564647265737360d01b6064820152608401610614565b6108ad81610a16565b50565b604051636eb1769f60e11b81523060048201526001600160a01b03848116602483015282919084169063dd62ed3e90604401602060405180830381865afa1580156108ff573d6000803e3d6000fd5b505050506040513d601f19601f820116820180604052508101906109239190610eef565b10156109545761093e6001600160a01b038316846000610a66565b6109546001600160a01b03831684600019610a66565b505050565b6040516001600160a01b03831660248201526044810182905261095490849063a9059cbb60e01b906064015b60408051601f198184030181529190526020810180516001600160e01b03166001600160e01b031990931692909217909152610b7b565b6000546001600160a01b031633146105955760405162461bcd60e51b815260206004820181905260248201527f4f776e61626c653a2063616c6c6572206973206e6f7420746865206f776e65726044820152606401610614565b600080546001600160a01b038381166001600160a01b0319831681178455604051919092169283917f8be0079c531659141344cd1fd0a4f28419497f9722a3daafe3b4186f6b6457e09190a35050565b801580610ae05750604051636eb1769f60e11b81523060048201526001600160a01b03838116602483015284169063dd62ed3e90604401602060405180830381865afa158015610aba573d6000803e3d6000fd5b505050506040513d601f19601f82011682018060405250810190610ade9190610eef565b155b610b4b5760405162461bcd60e51b815260206004820152603660248201527f5361666545524332303a20617070726f76652066726f6d206e6f6e2d7a65726f60448201527520746f206e6f6e2d7a65726f20616c6c6f77616e636560501b6064820152608401610614565b6040516001600160a01b03831660248201526044810182905261095490849063095ea7b360e01b90606401610985565b6000610bd0826040518060400160405280602081526020017f5361666545524332303a206c6f772d6c6576656c2063616c6c206661696c6564815250856001600160a01b0316610c4d9092919063ffffffff16565b8051909150156109545780806020019051810190610bee9190610f08565b6109545760405162461bcd60e51b815260206004820152602a60248201527f5361666545524332303a204552433230206f7065726174696f6e20646964206e6044820152691bdd081cdd58d8d9595960b21b6064820152608401610614565b6060610c5c8484600085610c66565b90505b9392505050565b606082471015610cc75760405162461bcd60e51b815260206004820152602660248201527f416464726573733a20696e73756666696369656e742062616c616e636520666f6044820152651c8818d85b1b60d21b6064820152608401610614565b6001600160a01b0385163b610d1e5760405162461bcd60e51b815260206004820152601d60248201527f416464726573733a2063616c6c20746f206e6f6e2d636f6e74726163740000006044820152606401610614565b600080866001600160a01b03168587604051610d3a9190610f66565b60006040518083038185875af1925050503d8060008114610d77576040519150601f19603f3d011682016040523d82523d6000602084013e610d7c565b606091505b5091509150610d8c828286610d97565b979650505050505050565b60608315610da6575081610c5f565b825115610db65782518084602001fd5b8160405162461bcd60e51b81526004016106149190610f82565b6001600160a01b03811681146108ad57600080fd5b60008060408385031215610df857600080fd5b8235610e0381610dd0565b946020939093013593505050565b600060208284031215610e2357600080fd5b5035919050565b600060208284031215610e3c57600080fd5b8135610c5f81610dd0565b80151581146108ad57600080fd5b60008060408385031215610e6857600080fd5b8235610e7381610dd0565b91506020830135610e8381610e47565b809150509250929050565b600080600060608486031215610ea357600080fd5b8335610eae81610dd0565b92506020840135610ebe81610dd0565b91506040840135610ece81610dd0565b809150509250925092565b634e487b7160e01b600052603260045260246000fd5b600060208284031215610f0157600080fd5b5051919050565b600060208284031215610f1a57600080fd5b8151610c5f81610e47565b600060208284031215610f3757600080fd5b8151610c5f81610dd0565b60005b83811015610f5d578181015183820152602001610f45565b50506000910152565b60008251610f78818460208701610f42565b9190910192915050565b6020815260008251806020840152610fa1816040850160208701610f42565b601f01601f1916919091016040019291505056fea26469706673582212209d9834232e4146bbbaf985ce53971b4c3585a0b9672cea3d4ce0a2baf0a0efe364736f6c63430008150033",
    "linkReferences": {}
  },
  "methodIdentifiers": {
    "addPair(address,address,address)": "f1ec23cf",
    "getNumLpTokens()": "c9e4f07a",
    "isLpTokenRegistered(address)": "43470f2a",
    "lpTokens(uint256)": "1bb5e2dc",
    "owner()": "8da5cb5b",
    "pairEndorsers(address)": "dc8dddf3",
    "pairs(address,uint256)": "03d40513",
    "renounceOwnership()": "715018a6",
    "setPairEndorser(address,bool)": "ad3d5870",
    "transferOwnership(address)": "f2fde38b",
    "zap(address)": "510a3383"
  },
  "id": 24
}