{
  "abi": [
    {
      "inputs": [
        {
          "internalType": "address",
          "name": "_boostZapContract",
          "type": "address"
        }
      ],
      "stateMutability": "nonpayable",
      "type": "constructor"
    },
    {
      "anonymous": false,
      "inputs": [
        {
          "indexed": false,
          "internalType": "address",
          "name": "account",
          "type": "address"
        },
        {
          "indexed": false,
          "internalType": "bool",
          "name": "canEndorse",
          "type": "bool"
        }
      ],
      "name": "ApprovedPairEndorser",
      "type": "event"
    },
    {
      "anonymous": false,
      "inputs": [
        {
          "indexed": true,
          "internalType": "address",
          "name": "previousOwner",
          "type": "address"
        },
        {
          "indexed": true,
          "internalType": "address",
          "name": "newOwner",
          "type": "address"
        }
      ],
      "name": "OwnershipTransferred",
      "type": "event"
    },
    {
      "anonymous": false,
      "inputs": [
        {
          "indexed": true,
          "internalType": "address",
          "name": "lpToken",
          "type": "address"
        },
        {
          "indexed": false,
          "internalType": "address",
          "name": "beefyVault",
          "type": "address"
        },
        {
          "indexed": false,
          "internalType": "address",
          "name": "yearnVault",
          "type": "address"
        }
      ],
      "name": "PairAdded",
      "type": "event"
    },
    {
      "anonymous": false,
      "inputs": [
        {
          "indexed": false,
          "internalType": "address",
          "name": "token",
          "type": "address"
        },
        {
          "indexed": false,
          "internalType": "uint256",
          "name": "amount",
          "type": "uint256"
        }
      ],
      "name": "Recovered",
      "type": "event"
    },
    {
      "anonymous": false,
      "inputs": [
        {
          "indexed": false,
          "internalType": "address",
          "name": "zapper",
          "type": "address"
        }
      ],
      "name": "UpdatedZapper",
      "type": "event"
    },
    {
      "anonymous": false,
      "inputs": [
        {
          "indexed": true,
          "internalType": "address",
          "name": "user",
          "type": "address"
        },
        {
          "indexed": true,
          "internalType": "address",
          "name": "targetVault",
          "type": "address"
        },
        {
          "indexed": false,
          "internalType": "uint256",
          "name": "amount",
          "type": "uint256"
        },
        {
          "indexed": false,
          "internalType": "bool",
          "name": "isStaked",
          "type": "bool"
        }
      ],
      "name": "ZapIn",
      "type": "event"
    },
    {
      "inputs": [
        {
          "internalType": "address",
          "name": "_lpToken",
          "type": "address"
        },
        {
          "internalType": "address",
          "name": "_beefyVault",
          "type": "address"
        },
        {
          "internalType": "address",
          "name": "_yearnVault",
          "type": "address"
        }
      ],
      "name": "addPair",
      "outputs": [],
      "stateMutability": "nonpayable",
      "type": "function"
    },
    {
      "inputs": [],
      "name": "boostZapContract",
      "outputs": [
        {
          "internalType": "contract IZap",
          "name": "",
          "type": "address"
        }
      ],
      "stateMutability": "view",
      "type": "function"
    },
    {
      "inputs": [],
      "name": "getNumLpTokens",
      "outputs": [
        {
          "internalType": "uint256",
          "name": "",
          "type": "uint256"
        }
      ],
      "stateMutability": "view",
      "type": "function"
    },
    {
      "inputs": [
        {
          "internalType": "address",
          "name": "",
          "type": "address"
        }
      ],
      "name": "isLpTokenRegistered",
      "outputs": [
        {
          "internalType": "bool",
          "name": "",
          "type": "bool"
        }
      ],
      "stateMutability": "view",
      "type": "function"
    },
    {
      "inputs": [
        {
          "internalType": "uint256",
          "name": "",
          "type": "uint256"
        }
      ],
      "name": "lpTokens",
      "outputs": [
        {
          "internalType": "address",
          "name": "",
          "type": "address"
        }
      ],
      "stateMutability": "view",
      "type": "function"
    },
    {
      "inputs": [],
      "name": "owner",
      "outputs": [
        {
          "internalType": "address",
          "name": "",
          "type": "address"
        }
      ],
      "stateMutability": "view",
      "type": "function"
    },
    {
      "inputs": [
        {
          "internalType": "address",
          "name": "",
          "type": "address"
        }
      ],
      "name": "pairEndorsers",
      "outputs": [
        {
          "internalType": "bool",
          "name": "",
          "type": "bool"
        }
      ],
      "stateMutability": "view",
      "type": "function"
    },
    {
      "inputs": [
        {
          "internalType": "address",
          "name": "",
          "type": "address"
        },
        {
          "internalType": "uint256",
          "name": "",
          "type": "uint256"
        }
      ],
      "name": "pairs",
      "outputs": [
        {
          "internalType": "address",
          "name": "",
          "type": "address"
        }
      ],
      "stateMutability": "view",
      "type": "function"
    },
    {
      "inputs": [],
      "name": "renounceOwnership",
      "outputs": [],
      "stateMutability": "nonpayable",
      "type": "function"
    },
    {
      "inputs": [
        {
          "internalType": "address",
          "name": "_endorser",
          "type": "address"
        },
        {
          "internalType": "bool",
          "name": "_allowed",
          "type": "bool"
        }
      ],
      "name": "setPairEndorser",
      "outputs": [],
      "stateMutability": "nonpayable",
      "type": "function"
    },
    {
      "inputs": [
        {
          "internalType": "address",
          "name": "_boostZapContract",
          "type": "address"
        }
      ],
      "name": "setZapper",
      "outputs": [],
      "stateMutability": "nonpayable",
      "type": "function"
    },
    {
      "inputs": [
        {
          "internalType": "address",
          "name": "newOwner",
          "type": "address"
        }
      ],
      "name": "transferOwnership",
      "outputs": [],
      "stateMutability": "nonpayable",
      "type": "function"
    },
    {
      "inputs": [
        {
          "internalType": "address",
          "name": "_lpToken",
          "type": "address"
        }
      ],
      "name": "zap",
      "outputs": [],
      "stateMutability": "nonpayable",
      "type": "function"
    }
  ],
  "bytecode": {
    "object": "0x608060405234801561001057600080fd5b506040516113a63803806113a683398101604081905261002f916100ad565b6100383361005d565b600280546001600160a01b0319166001600160a01b03929092169190911790556100dd565b600080546001600160a01b038381166001600160a01b0319831681178455604051919092169283917f8be0079c531659141344cd1fd0a4f28419497f9722a3daafe3b4186f6b6457e09190a35050565b6000602082840312156100bf57600080fd5b81516001600160a01b03811681146100d657600080fd5b9392505050565b6112ba806100ec6000396000f3fe608060405234801561001057600080fd5b50600436106100cf5760003560e01c80638da5cb5b1161008c578063d003d0f511610066578063d003d0f5146101af578063dc8dddf3146101c2578063f1ec23cf146101e5578063f2fde38b146101f857600080fd5b80638da5cb5b1461017a578063ad3d58701461018b578063c9e4f07a1461019e57600080fd5b806303d40513146100d45780631bb5e2dc14610104578063424351751461011757806343470f2a1461012c578063510a33831461015f578063715018a614610172575b600080fd5b6100e76100e23660046110b4565b61020b565b6040516001600160a01b0390911681526020015b60405180910390f35b6100e76101123660046110e0565b610239565b61012a6101253660046110f9565b610263565b005b61014f61013a3660046110f9565b60056020526000908152604090205460ff1681565b60405190151581526020016100fb565b61012a61016d3660046110f9565b6102bf565b61012a610813565b6000546001600160a01b03166100e7565b61012a610199366004611124565b610827565b6001546040519081526020016100fb565b6002546100e7906001600160a01b031681565b61014f6101d03660046110f9565b60046020526000908152604090205460ff1681565b61012a6101f336600461115d565b610892565b61012a6102063660046110f9565b610b06565b6003602052816000526040600020816002811061022757600080fd5b01546001600160a01b03169150829050565b6001818154811061024957600080fd5b6000918252602090912001546001600160a01b0316905081565b61026b610b7f565b600280546001600160a01b0319166001600160a01b0383169081179091556040519081527fe0e7227de5ec204691b2be349b6bc66860230c83e2ae37bf1939ed8b01fc5b569060200160405180910390a150565b6001600160a01b0381166000908152600360205260408082208151808301928390529160029082845b81546001600160a01b031681526001909101906020018083116102e85750505050509050600081600060028110610321576103216111a8565b60200201519050600082600160200201516040516370a0823160e01b81523360048201529091506000906001600160a01b038416906370a0823190602401602060405180830381865afa15801561037c573d6000803e3d6000fd5b505050506040513d601f19601f820116820180604052508101906103a091906111be565b84519091506103b0908483610bd9565b6040516323b872dd60e01b8152336004820152306024820152604481018290526001600160a01b038416906323b872dd906064016020604051808303816000875af1158015610403573d6000803e3d6000fd5b505050506040513d601f19601f8201168201806040525081019061042791906111d7565b5083600060200201516001600160a01b031663853828b66040518163ffffffff1660e01b8152600401600060405180830381600087803b15801561046a57600080fd5b505af115801561047e573d6000803e3d6000fd5b50506040516370a0823160e01b8152306004820152600092506001600160a01b03881691506370a0823190602401602060405180830381865afa1580156104c9573d6000803e3d6000fd5b505050506040513d601f19601f820116820180604052508101906104ed91906111be565b90506000600260009054906101000a90046001600160a01b03166001600160a01b031663f59e3de76040518163ffffffff1660e01b8152600401602060405180830381865afa158015610544573d6000803e3d6000fd5b505050506040513d601f19601f8201168201806040525081019061056891906111f4565b6020870151604051638dddb3e560e01b81526001600160a01b039182166004820152911690638dddb3e590602401602060405180830381865afa1580156105b3573d6000803e3d6000fd5b505050506040513d601f19601f820116820180604052508101906105d791906111f4565b90506001600160a01b0381166107275760208601516105f7908884610bd9565b85600160200201516001600160a01b031663d0e30db06040518163ffffffff1660e01b8152600401600060405180830381600087803b15801561063957600080fd5b505af115801561064d573d6000803e3d6000fd5b50506040516370a0823160e01b8152306004820152600092506001600160a01b03871691506370a0823190602401602060405180830381865afa158015610698573d6000803e3d6000fd5b505050506040513d601f19601f820116820180604052508101906106bc91906111be565b90506106d26001600160a01b0386163383610c82565b602080880151604080518481526000938101939093526001600160a01b039091169133917fe96c9e409dfdd43a71a9f555abb561716d5a3b7cb5503aef39c3b19e435638bc910160405180910390a35061080a565b60025461073e906001600160a01b03168884610bd9565b6002546020870151604051636d6a66a960e11b81526001600160a01b0391821660048201526024810185905291169063dad4cd52906044016020604051808303816000875af1158015610795573d6000803e3d6000fd5b505050506040513d601f19601f820116820180604052508101906107b991906111be565b50602080870151604080518581526001938101939093526001600160a01b039091169133917fe96c9e409dfdd43a71a9f555abb561716d5a3b7cb5503aef39c3b19e435638bc910160405180910390a35b50505050505050565b61081b610b7f565b6108256000610ce5565b565b61082f610b7f565b6001600160a01b038216600081815260046020908152604091829020805460ff19168515159081179091558251938452908301527f76b0b705fe5def0b2d1a1c29a7b39c0d71d957ff92b1cbfc130a3d834af95710910160405180910390a15050565b3360009081526004602052604090205460ff166108e55760405162461bcd60e51b815260206004820152600c60248201526b155b985d5d1a1bdc9a5e995960a21b60448201526064015b60405180910390fd5b806001600160a01b031663fc0c546a6040518163ffffffff1660e01b8152600401602060405180830381865afa158015610923573d6000803e3d6000fd5b505050506040513d601f19601f8201168201806040525081019061094791906111f4565b6001600160a01b0316826001600160a01b0316631f1fcd516040518163ffffffff1660e01b8152600401602060405180830381865afa15801561098e573d6000803e3d6000fd5b505050506040513d601f19601f820116820180604052508101906109b291906111f4565b6001600160a01b031614610a085760405162461bcd60e51b815260206004820152601760248201527f6c7020746f6b656e20646f6573206e6f74206d6174636800000000000000000060448201526064016108dc565b6001600160a01b03838116600090815260036020908152604080832080546001600160a01b0319908116888716178255600190910180549091169486169490941790935560059052205460ff16610aba576001805480820182557fb10e2d527612073b26eecdfd717e6a320cf44b4afac2b0732d9fcbe2b7fa0cf60180546001600160a01b0319166001600160a01b0386169081179091556000908152600560205260409020805460ff191690911790555b604080516001600160a01b03848116825283811660208301528516917f7f46075c67ca5bbd3aaf82d8e324282141f27b7cba3376e5498a6b70c9931c2a910160405180910390a2505050565b610b0e610b7f565b6001600160a01b038116610b735760405162461bcd60e51b815260206004820152602660248201527f4f776e61626c653a206e6577206f776e657220697320746865207a65726f206160448201526564647265737360d01b60648201526084016108dc565b610b7c81610ce5565b50565b6000546001600160a01b031633146108255760405162461bcd60e51b815260206004820181905260248201527f4f776e61626c653a2063616c6c6572206973206e6f7420746865206f776e657260448201526064016108dc565b604051636eb1769f60e11b81523060048201526001600160a01b03848116602483015282919084169063dd62ed3e90604401602060405180830381865afa158015610c28573d6000803e3d6000fd5b505050506040513d601f19601f82011682018060405250810190610c4c91906111be565b1015610c7d57610c676001600160a01b038316846000610d35565b610c7d6001600160a01b03831684600019610d35565b505050565b6040516001600160a01b038316602482015260448101829052610c7d90849063a9059cbb60e01b906064015b60408051601f198184030181529190526020810180516001600160e01b03166001600160e01b031990931692909217909152610e4a565b600080546001600160a01b038381166001600160a01b0319831681178455604051919092169283917f8be0079c531659141344cd1fd0a4f28419497f9722a3daafe3b4186f6b6457e09190a35050565b801580610daf5750604051636eb1769f60e11b81523060048201526001600160a01b03838116602483015284169063dd62ed3e90604401602060405180830381865afa158015610d89573d6000803e3d6000fd5b505050506040513d601f19601f82011682018060405250810190610dad91906111be565b155b610e1a5760405162461bcd60e51b815260206004820152603660248201527f5361666545524332303a20617070726f76652066726f6d206e6f6e2d7a65726f60448201527520746f206e6f6e2d7a65726f20616c6c6f77616e636560501b60648201526084016108dc565b6040516001600160a01b038316602482015260448101829052610c7d90849063095ea7b360e01b90606401610cae565b6000610e9f826040518060400160405280602081526020017f5361666545524332303a206c6f772d6c6576656c2063616c6c206661696c6564815250856001600160a01b0316610f1c9092919063ffffffff16565b805190915015610c7d5780806020019051810190610ebd91906111d7565b610c7d5760405162461bcd60e51b815260206004820152602a60248201527f5361666545524332303a204552433230206f7065726174696f6e20646964206e6044820152691bdd081cdd58d8d9595960b21b60648201526084016108dc565b6060610f2b8484600085610f35565b90505b9392505050565b606082471015610f965760405162461bcd60e51b815260206004820152602660248201527f416464726573733a20696e73756666696369656e742062616c616e636520666f6044820152651c8818d85b1b60d21b60648201526084016108dc565b6001600160a01b0385163b610fed5760405162461bcd60e51b815260206004820152601d60248201527f416464726573733a2063616c6c20746f206e6f6e2d636f6e747261637400000060448201526064016108dc565b600080866001600160a01b031685876040516110099190611235565b60006040518083038185875af1925050503d8060008114611046576040519150601f19603f3d011682016040523d82523d6000602084013e61104b565b606091505b509150915061105b828286611066565b979650505050505050565b60608315611075575081610f2e565b8251156110855782518084602001fd5b8160405162461bcd60e51b81526004016108dc9190611251565b6001600160a01b0381168114610b7c57600080fd5b600080604083850312156110c757600080fd5b82356110d28161109f565b946020939093013593505050565b6000602082840312156110f257600080fd5b5035919050565b60006020828403121561110b57600080fd5b8135610f2e8161109f565b8015158114610b7c57600080fd5b6000806040838503121561113757600080fd5b82356111428161109f565b9150602083013561115281611116565b809150509250929050565b60008060006060848603121561117257600080fd5b833561117d8161109f565b9250602084013561118d8161109f565b9150604084013561119d8161109f565b809150509250925092565b634e487b7160e01b600052603260045260246000fd5b6000602082840312156111d057600080fd5b5051919050565b6000602082840312156111e957600080fd5b8151610f2e81611116565b60006020828403121561120657600080fd5b8151610f2e8161109f565b60005b8381101561122c578181015183820152602001611214565b50506000910152565b60008251611247818460208701611211565b9190910192915050565b6020815260008251806020840152611270816040850160208701611211565b601f01601f1916919091016040019291505056fea2646970667358221220e5df3aba6dae64c99f374d85252259eb466ade4c26237cad54229ddcc7aee3bc64736f6c63430008150033",
    "linkReferences": {}
  },
  "methodIdentifiers": {
    "addPair(address,address,address)": "f1ec23cf",
    "boostZapContract()": "d003d0f5",
    "getNumLpTokens()": "c9e4f07a",
    "isLpTokenRegistered(address)": "43470f2a",
    "lpTokens(uint256)": "1bb5e2dc",
    "owner()": "8da5cb5b",
    "pairEndorsers(address)": "dc8dddf3",
    "pairs(address,uint256)": "03d40513",
    "renounceOwnership()": "715018a6",
    "setPairEndorser(address,bool)": "ad3d5870",
    "setZapper(address)": "42435175",
    "transferOwnership(address)": "f2fde38b",
    "zap(address)": "510a3383"
  },
  "id": 24
}