{
  "abi": [
    {
      "anonymous": false,
      "inputs": [
        {
          "indexed": true,
          "internalType": "address",
          "name": "previousOwner",
          "type": "address"
        },
        {
          "indexed": true,
          "internalType": "address",
          "name": "newOwner",
          "type": "address"
        }
      ],
      "name": "OwnershipTransferred",
      "type": "event"
    },
    {
      "anonymous": false,
      "inputs": [
        {
          "indexed": true,
          "internalType": "address",
          "name": "lpToken",
          "type": "address"
        },
        {
          "indexed": false,
          "internalType": "address",
          "name": "beefyVault",
          "type": "address"
        },
        {
          "indexed": false,
          "internalType": "address",
          "name": "yearnVault",
          "type": "address"
        }
      ],
      "name": "VaultAdded",
      "type": "event"
    },
    {
      "inputs": [
        {
          "internalType": "address",
          "name": "_lpToken",
          "type": "address"
        },
        {
          "internalType": "address",
          "name": "_beefyVault",
          "type": "address"
        },
        {
          "internalType": "address",
          "name": "_yearnVault",
          "type": "address"
        }
      ],
      "name": "addPair",
      "outputs": [],
      "stateMutability": "nonpayable",
      "type": "function"
    },
    {
      "inputs": [],
      "name": "getNumLpTokens",
      "outputs": [
        {
          "internalType": "uint256",
          "name": "",
          "type": "uint256"
        }
      ],
      "stateMutability": "view",
      "type": "function"
    },
    {
      "inputs": [
        {
          "internalType": "address",
          "name": "",
          "type": "address"
        }
      ],
      "name": "isLpTokenRegistered",
      "outputs": [
        {
          "internalType": "bool",
          "name": "",
          "type": "bool"
        }
      ],
      "stateMutability": "view",
      "type": "function"
    },
    {
      "inputs": [
        {
          "internalType": "uint256",
          "name": "",
          "type": "uint256"
        }
      ],
      "name": "lpTokens",
      "outputs": [
        {
          "internalType": "address",
          "name": "",
          "type": "address"
        }
      ],
      "stateMutability": "view",
      "type": "function"
    },
    {
      "inputs": [],
      "name": "owner",
      "outputs": [
        {
          "internalType": "address",
          "name": "",
          "type": "address"
        }
      ],
      "stateMutability": "view",
      "type": "function"
    },
    {
      "inputs": [
        {
          "internalType": "address",
          "name": "",
          "type": "address"
        }
      ],
      "name": "pairEndorsers",
      "outputs": [
        {
          "internalType": "bool",
          "name": "",
          "type": "bool"
        }
      ],
      "stateMutability": "view",
      "type": "function"
    },
    {
      "inputs": [
        {
          "internalType": "address",
          "name": "",
          "type": "address"
        },
        {
          "internalType": "uint256",
          "name": "",
          "type": "uint256"
        }
      ],
      "name": "pairs",
      "outputs": [
        {
          "internalType": "address",
          "name": "",
          "type": "address"
        }
      ],
      "stateMutability": "view",
      "type": "function"
    },
    {
      "inputs": [],
      "name": "renounceOwnership",
      "outputs": [],
      "stateMutability": "nonpayable",
      "type": "function"
    },
    {
      "inputs": [
        {
          "internalType": "address",
          "name": "endorser",
          "type": "address"
        },
        {
          "internalType": "bool",
          "name": "allowed",
          "type": "bool"
        }
      ],
      "name": "setPairEndorser",
      "outputs": [],
      "stateMutability": "nonpayable",
      "type": "function"
    },
    {
      "inputs": [
        {
          "internalType": "address",
          "name": "newOwner",
          "type": "address"
        }
      ],
      "name": "transferOwnership",
      "outputs": [],
      "stateMutability": "nonpayable",
      "type": "function"
    }
  ],
  "bytecode": {
    "object": "0x608060405234801561001057600080fd5b5061001a3361001f565b61006f565b600080546001600160a01b038381166001600160a01b0319831681178455604051919092169283917f8be0079c531659141344cd1fd0a4f28419497f9722a3daafe3b4186f6b6457e09190a35050565b6107688061007e6000396000f3fe608060405234801561001057600080fd5b506004361061009e5760003560e01c8063ad3d587011610066578063ad3d587014610134578063c9e4f07a14610147578063dc8dddf314610158578063f1ec23cf1461017b578063f2fde38b1461018e57600080fd5b806303d40513146100a35780631bb5e2dc146100d357806343470f2a146100e6578063715018a6146101195780638da5cb5b14610123575b600080fd5b6100b66100b1366004610623565b6101a1565b6040516001600160a01b0390911681526020015b60405180910390f35b6100b66100e136600461064f565b6101cf565b6101096100f4366004610668565b60046020526000908152604090205460ff1681565b60405190151581526020016100ca565b6101216101f9565b005b6000546001600160a01b03166100b6565b61012161014236600461068c565b61020d565b6002546040519081526020016100ca565b610109610166366004610668565b60036020526000908152604090205460ff1681565b6101216101893660046106ca565b610240565b61012161019c366004610668565b6104eb565b600160205281600052604060002081600281106101bd57600080fd5b01546001600160a01b03169150829050565b600281815481106101df57600080fd5b6000918252602090912001546001600160a01b0316905081565b610201610564565b61020b60006105be565b565b610215610564565b6001600160a01b03919091166000908152600360205260409020805460ff1916911515919091179055565b3360009081526003602052604090205460ff166102935760405162461bcd60e51b815260206004820152600c60248201526b155b985d5d1a1bdc9a5e995960a21b60448201526064015b60405180910390fd5b806001600160a01b031663fc0c546a6040518163ffffffff1660e01b8152600401602060405180830381865afa1580156102d1573d6000803e3d6000fd5b505050506040513d601f19601f820116820180604052508101906102f59190610715565b6001600160a01b0316826001600160a01b0316631f1fcd516040518163ffffffff1660e01b8152600401602060405180830381865afa15801561033c573d6000803e3d6000fd5b505050506040513d601f19601f820116820180604052508101906103609190610715565b6001600160a01b0316146103af5760405162461bcd60e51b81526020600482015260166024820152750d8e040e8ded6cadc40c8decae6dc4ee840dac2e8c6d60531b604482015260640161028a565b6001600160a01b03831660009081526004602052604090205460ff1615610415576001600160a01b03838116600090815260016020819052604090912080546001600160a01b03199081168685161782559101805490911691831691909117905561049f565b6001600160a01b03838116600081815260016020818152604080842080548988166001600160a01b03199182161782559084018054821697891697909717909655600280548085019091557f405787fa12a823e0f2b7631cc41b3ba8828b3321ca811111fa75cd3aa3bb5ace018054909616909417909455600490935220805460ff191690911790555b604080516001600160a01b03848116825283811660208301528516917fc590bd7f43139981c355ef80ff49e3082ca7d9b6d0102bac27423c00b9d44589910160405180910390a2505050565b6104f3610564565b6001600160a01b0381166105585760405162461bcd60e51b815260206004820152602660248201527f4f776e61626c653a206e6577206f776e657220697320746865207a65726f206160448201526564647265737360d01b606482015260840161028a565b610561816105be565b50565b6000546001600160a01b0316331461020b5760405162461bcd60e51b815260206004820181905260248201527f4f776e61626c653a2063616c6c6572206973206e6f7420746865206f776e6572604482015260640161028a565b600080546001600160a01b038381166001600160a01b0319831681178455604051919092169283917f8be0079c531659141344cd1fd0a4f28419497f9722a3daafe3b4186f6b6457e09190a35050565b6001600160a01b038116811461056157600080fd5b6000806040838503121561063657600080fd5b82356106418161060e565b946020939093013593505050565b60006020828403121561066157600080fd5b5035919050565b60006020828403121561067a57600080fd5b81356106858161060e565b9392505050565b6000806040838503121561069f57600080fd5b82356106aa8161060e565b9150602083013580151581146106bf57600080fd5b809150509250929050565b6000806000606084860312156106df57600080fd5b83356106ea8161060e565b925060208401356106fa8161060e565b9150604084013561070a8161060e565b809150509250925092565b60006020828403121561072757600080fd5b81516106858161060e56fea2646970667358221220deefdf54e77dcd16c78d6906b212e39855296ec85f57d7c6dd05a8da4c97e49264736f6c63430008150033",
    "linkReferences": {}
  },
  "methodIdentifiers": {
    "addPair(address,address,address)": "f1ec23cf",
    "getNumLpTokens()": "c9e4f07a",
    "isLpTokenRegistered(address)": "43470f2a",
    "lpTokens(uint256)": "1bb5e2dc",
    "owner()": "8da5cb5b",
    "pairEndorsers(address)": "dc8dddf3",
    "pairs(address,uint256)": "03d40513",
    "renounceOwnership()": "715018a6",
    "setPairEndorser(address,bool)": "ad3d5870",
    "transferOwnership(address)": "f2fde38b"
  },
  "id": 20
}